{
  "contractName": "DocumentVerification",
  "abi": [
    {
      "constant": true,
      "inputs": [
        {
          "name": "document",
          "type": "string"
        }
      ],
      "name": "checkDocument",
      "outputs": [
        {
          "name": "",
          "type": "bool"
        }
      ],
      "payable": false,
      "stateMutability": "view",
      "type": "function"
    },
    {
      "constant": false,
      "inputs": [
        {
          "name": "proof",
          "type": "bytes32"
        }
      ],
      "name": "storeProof",
      "outputs": [],
      "payable": false,
      "stateMutability": "nonpayable",
      "type": "function"
    },
    {
      "constant": false,
      "inputs": [
        {
          "name": "document",
          "type": "string"
        }
      ],
      "name": "verifyDocument",
      "outputs": [],
      "payable": false,
      "stateMutability": "nonpayable",
      "type": "function"
    },
    {
      "constant": true,
      "inputs": [
        {
          "name": "proof",
          "type": "bytes32"
        }
      ],
      "name": "hasProof",
      "outputs": [
        {
          "name": "",
          "type": "bool"
        }
      ],
      "payable": false,
      "stateMutability": "view",
      "type": "function"
    },
    {
      "constant": true,
      "inputs": [
        {
          "name": "document",
          "type": "string"
        }
      ],
      "name": "proofFor",
      "outputs": [
        {
          "name": "",
          "type": "bytes32"
        }
      ],
      "payable": false,
      "stateMutability": "pure",
      "type": "function"
    },
    {
      "anonymous": false,
      "inputs": [
        {
          "indexed": false,
          "name": "document_hash",
          "type": "bytes32"
        }
      ],
      "name": "LogDocumentProof",
      "type": "event"
    }
  ],
  "bytecode": "0x6060604052341561000f57600080fd5b6103c38061001e6000396000f30060606040526004361061006d576000357c0100000000000000000000000000000000000000000000000000000000900463ffffffff16806353fb9233146100725780638952877b146100e7578063beee5eb71461010e578063e3d1e6d61461016b578063f6c1acdf146101aa575b600080fd5b341561007d57600080fd5b6100cd600480803590602001908201803590602001908080601f01602080910402602001604051908101604052809392919081815260200183838082843782019150505050505091905050610223565b604051808215151515815260200191505060405180910390f35b34156100f257600080fd5b61010c600480803560001916906020019091905050610242565b005b341561011957600080fd5b610169600480803590602001908201803590602001908080601f01602080910402602001604051908101604052809392919081815260200183838082843782019150505050505091905050610278565b005b341561017657600080fd5b6101906004808035600019169060200190919050506102d1565b604051808215151515815260200191505060405180910390f35b34156101b557600080fd5b610205600480803590602001908201803590602001908080601f01602080910402602001604051908101604052809392919081815260200183838082843782019150505050505091905050610302565b60405180826000191660001916815260200191505060405180910390f35b60008061022f83610302565b905061023a816102d1565b915050919050565b6001600080836000191660001916815260200190815260200160002060006101000a81548160ff02191690831515021790555050565b600061028382610302565b905061028e81610242565b7fcd611714967bb92591e8cd6c868d235d83c2361eae75619c323d34341deb3d358160405180826000191660001916815260200191505060405180910390a15050565b6000806000836000191660001916815260200190815260200160002060009054906101000a900460ff169050919050565b60006002826000604051602001526040518082805190602001908083835b6020831015156103455780518252602082019150602081019050602083039250610320565b6001836020036101000a03801982511681845116808217855250505050505090500191505060206040518083038160008661646e5a03f1151561038757600080fd5b50506040518051905090509190505600a165627a7a7230582092dff7fc80950c36635ec7c3fba1f8fb3a5020d0d9f18594db9296ef4c9eef360029",
  "source": "pragma solidity ^0.4.15;\n\n// PDocumentVerification contract, version 1\ncontract DocumentVerification {\n  mapping (bytes32 => bool) private proofs;\n\n  event LogDocumentProof(bytes32 document_hash);\n\n  // store a proof of existence in the contract state\n  function storeProof(bytes32 proof) public{\n    proofs[proof] = true;\n  }\n  // calculate and store the proof for a document\n  function verifyDocument(string document) public{\n    var proof = proofFor(document);\n    storeProof(proof);\n    LogDocumentProof(proof);\n  }\n  // helper function to get a document's sha256\n  function proofFor(string document)  public pure returns (bytes32) {\n    return sha256(document);\n  }\n  // check if a document has been verified\n  function checkDocument(string document) public constant returns (bool) {\n    var proof = proofFor(document);\n    return hasProof(proof);\n  }\n  // returns true if proof is stored\n  function hasProof(bytes32 proof) public constant returns(bool) {\n    return proofs[proof];\n  }\n}\n",
  "sourcePath": "/Users/ashfaq/truffle_box/contracts/DocumentVerification.sol",
  "compiler": {
    "name": "solc",
    "version": "0.4.18+commit.9cf6e910.Emscripten.clang"
  },
  "schemaVersion": "1.0.1",
  "updatedAt": "2018-01-19T05:22:37.011Z"
}